:100000000C9462000C9412050C94EB040C948A007E
:100010000C948A000C948A000C948A000C948A0038
:100020000C948A000C948A000C948A000C948A0028
:100030000C948A000C948A000C948A000C948A0018
:100040000C94A1040C948A000C945F050C9439055F
:100050000C948A000C948A000C948A000C948A00F8
:100060000C948A000C948A000000000024002700F1
:100070002A0000000000250028002B0000000000DE
:1000800023002600290004040404040404040202DA
:100090000202020203030303030301020408102007
:1000A0004080010204081020010204081020000012
:1000B0000008000201000003040700000000000027
:1000C0000000E60811241FBECFEFD8E0DEBFCDBF91
:1000D00011E0A0E0B1E0E4ECF7E102C005900D9280
:1000E000AC36B107D9F722E0ACE6B1E001C01D9211
:1000F000A934B207E1F710E0C2E6D0E004C02197CE
:10010000FE010E947809C136D107C9F70E94910506
:100110000C94E00B0C940000833081F028F48130C3
:1001200099F08230A1F008958730A9F08830B9F0B5
:100130008430D1F4809180008F7D03C08091800055
:100140008F7780938000089584B58F7702C084B53F
:100150008F7D84BD08958091B0008F7703C080911A
:10016000B0008F7D8093B0000895CF93DF93282F48
:1001700030E0F901E255FF4F8491F901E656FF4F57
:10018000D491F901EA57FF4FC491CC2391F081112A
:100190000E948C00EC2FF0E0EE0FFF1FE458FF4FA1
:1001A000A591B491EC91ED2381E090E021F480E001
:1001B00002C080E090E0DF91CF9108951F93CF932C
:1001C000DF93282F30E0F901E255FF4F8491F901C8
:1001D000E656FF4FD491F901EA57FF4FC491CC2363
:1001E000C9F0162F81110E948C00EC2FF0E0EE0F69
:1001F000FF1FEE58FF4FA591B4918FB7F8941111DE
:1002000005C09C91ED2FE095E92302C0EC91ED2B08
:10021000EC938FBFDF91CF911F910895CF93DF9320
:1002200090E0FC01E656FF4F2491FC01EA57FF4F96
:100230008491882361F190E0880F991FFC01E859AF
:10024000FF4FC591D491FC01EE58FF4FA591B49199
:10025000611109C09FB7F894888120958223888313
:10026000EC912E230BC0623061F49FB7F894388173
:10027000822F809583238883EC912E2B2C939FBF14
:1002800006C08FB7F894E8812E2B28838FBFDF91AB
:10029000CF910895CF93DF93EC0161E086E00E9457
:1002A0000E01209711F460E004C0CF3FD10531F476
:1002B00061E086E0DF91CF910C94DE00E4EBF0E0AA
:1002C000E491E330F9F048F4E130B9F0E230A1F51F
:1002D00084B5806284BDC8BD34C0E730E9F0E83041
:1002E00019F1E43049F580918000806280938000AC
:1002F000D0938B00C0938A0024C084B5806884BDED
:10030000C7BD1FC080918000806880938000D0931B
:100310008900C093880015C08091B00080688093E8
:10032000B000C093B3000DC08091B0008062809394
:10033000B000C093B40005C0C038D1050CF0B8CFF0
:10034000B2CFDF91CF9108952FB7F8946091A801B3
:100350007091A9018091AA019091AB012FBF0895DE
:10036000CF93DF9382E00E94B500EC019093790176
:100370008093780183E00E94B50090937701809389
:100380007601209761F5009751F420917401309126
:1003900075012130310571F0232BC1F06BC0813024
:1003A000910509F067C02091740130917501211504
:1003B000310541F42091720130917301232B09F032
:1003C00059C02FC02130310509F054C0209172016D
:1003D000309173012130310509F04CC037C0C13074
:1003E000D10509F047C08130910559F4209174017D
:1003F000309175012115310569F02130310501F188
:1004000039C00097B9F52091740130917501213000
:100410003105A1F420917201309173012130310531
:1004200049F540917E0150917F016091800170916A
:1004300081014F5F5F4F6F4F7F4F14C0232BD1F46B
:100440002091720130917301232BA1F440917E0120
:1004500050917F016091800170918101415051095B
:100460006109710940937E0150937F01609380017F
:1004700070938101D0937501C093740190937301BF
:1004800080937201DF91CF9108950895CF92DF920A
:10049000EF92FF920F931F93CF93DF936C017A013A
:1004A0008B01C0E0D0E0CE15DF0589F0D8016D9159
:1004B0008D01D601ED91FC910190F081E02DC601F6
:1004C0000995892B11F47E0102C02196ECCFC7015A
:1004D000DF91CF911F910F91FF90EF90DF90CF9020
:1004E0000895FC01918D828D981761F0828DDF0156
:1004F000A80FB11D5D968C91928D9F5F9F73928F17
:1005000090E008958FEF9FEF0895FC01918D828D0B
:10051000981731F0828DE80FF11D858D90E00895D8
:100520008FEF9FEF0895FC01918D228D892F90E030
:10053000805C9F4F821B91098F73992708958CEAE5
:1005400091E00E94930221E0892B09F420E0822FA0
:100550000895FC01848DDF01A80FB11DA35ABF4F80
:100560002C91848D90E001968F739927848FA689B2
:10057000B7892C93A089B1898C9180648C93938DD9
:10058000848D981306C00288F389E02D80818F7DC9
:1005900080830895EF92FF920F931F93CF93DF9381
:1005A000EC0181E0888F9B8D8C8D981305C0E889C4
:1005B000F989808185FD24C0F62E0B8D10E00F5F38
:1005C0001F4F0F731127E02E8C8DE8120CC00FB651
:1005D00007FCFACFE889F989808185FFF5CFCE0144
:1005E0000E94A902F1CF8B8DFE01E80FF11DE35AA5
:1005F000FF4FF0820B8FEA89FB898081806207C000
:10060000EE89FF896083E889F9898081806480832D
:1006100081E090E0DF91CF911F910F91FF90EF90DB
:100620000895CF93DF93EC01888D8823C9F0EA8980
:10063000FB89808185FD05C0A889B9898C9186FDDB
:100640000FC00FB607FCF5CF808185FFF2CFA889D8
:10065000B9898C9185FFEDCFCE010E94A902E7CF29
:10066000DF91CF91089580E090E0892B29F00E94DE
:100670009F0281110C9400000895009769F0FC011D
:1006800001900020E9F73197AF01481B590BBC01DD
:100690008CEA91E00C94460280E090E008958F92FD
:1006A0009F92AF92BF920F931F93CF93DF93CDB7DB
:1006B000DEB7A1970FB6F894DEBF0FBECDBF19A26B
:1006C000423008F44AE08E010F5D1F4F842E912CBA
:1006D000A12CB12CA50194010E943709E62FB90184
:1006E000CA0101501109EA3014F4E05D01C0E95C6F
:1006F000D801EC93232B242B252B61F7C8010E94F2
:100700003D03A1960FB6F894DEBF0FBECDBFDF91BB
:10071000CF911F910F91BF90AF909F908F900895B0
:10072000CF92DF92EF92FF92CF93DF9397FF21C09A
:100730006B017C01E091AC01F091AD010190F08181
:10074000E02D6DE28CEA91E00995EC0166277727B0
:10075000CB016C197D098E099F094AE00E944F0365
:100760008C0F9D1FDF91CF91FF90EF90DF90CF9086
:1007700008954AE0DF91CF91FF90EF90DF90CF9006
:100780000C944F034F925F926F927F928F929F9241
:10079000AF92BF92CF92DF92EF92FF926B017C01FA
:1007A000B42E9B01AC010E94980A882319F084E1C1
:1007B00091E027C026013701E89477F82FEF3FEF4B
:1007C0004FE75FE7C301B2010E94980A81110DC093
:1007D0002FEF3FEF4FE75FE7C301B2010E94A20A8C
:1007E00018161CF488E191E00CC02FEF3FEF4FE7A3
:1007F0005FE4C701B6010E94930A181684F48CE1E5
:1008000091E0FF90EF90DF90CF90BF90AF909F90DE
:100810008F907F906F905F904F900C943D032FEFDF
:100820003FEF4FE75FECC701B6010E94A20A87FDC8
:10083000E6CF20E030E0A901C701B6010E94A20A7C
:1008400087FF11C0E091AC01F091AD010190F08102
:10085000E02D6DE28CEA91E009954C01F7FAF094F5
:10086000F7F8F09402C0812C912CA12C60E070E08C
:1008700080E09FE3AB1441F020E030E040E251E43F
:100880000E94EB09A394F6CF9B01AC01C701B6010E
:100890000E947F092B013C010E94640A6B017C01CC
:1008A0000E94A70A9B01AC01C301B2010E947E090C
:1008B0002B013C014AE0C701B6010E944F037C01B5
:1008C000E80CF91CBB2031F080E291E00E943D036E
:1008D000E80EF91EDB2CDD2021F120E030E040E2C3
:1008E00051E4C301B2010E94080B2B013C010E949C
:1008F000640A4B01A12CB12C4AE0C501B4010E944D
:100900004F03E80EF91EC501B4010E94A70A9B011E
:10091000AC01C301B2010E947E092B013C01DA94B3
:10092000DACFC701FF90EF90DF90CF90BF90AF90EC
:100930009F908F907F906F905F904F9008950E944E
:100940009D0A1F920F920FB60F9211242F933F937F
:100950008F939F93AF93BF938091A8019091A9012A
:10096000A091AA01B091AB013091A70123E0230F20
:100970002D3720F40196A11DB11D05C026E8230FD7
:100980000296A11DB11D2093A7018093A801909309
:10099000A901A093AA01B093AB018091A30190910A
:1009A000A401A091A501B091A6010196A11DB11DC0
:1009B0008093A3019093A401A093A501B093A601F5
:1009C000BF91AF919F918F913F912F910F900FBE4B
:1009D0000F901F9018951F920F920FB60F9211242F
:1009E0002F933F934F935F936F937F938F939F9337
:1009F000AF93BF93EF93FF93E0910201F091030156
:100A00000995FF91EF91BF91AF919F918F917F9148
:100A10006F915F914F913F912F910F900FBE0F906B
:100A20001F9018951F920F920FB60F9211242F93BB
:100A30003F934F935F936F937F938F939F93AF9366
:100A4000BF93EF93FF93E0910001F09101010995AD
:100A5000FF91EF91BF91AF919F918F917F916F9196
:100A60005F914F913F912F910F900FBE0F901F906C
:100A700018951F920F920FB60F9211242F933F9348
:100A80004F935F936F937F938F939F93AF93BF9396
:100A9000EF93FF938CEA91E00E94A902FF91EF91FE
:100AA000BF91AF919F918F917F916F915F914F9186
:100AB0003F912F910F900FBE0F901F9018951F928E
:100AC0000F920FB60F9211242F938F939F93EF9352
:100AD000FF93E091BC01F091BD018081E091C201E2
:100AE000F091C30182FD12C090818091C5018F5F9A
:100AF0008F732091C601821751F0E091C501F0E09B
:100B0000E455FE4F958F8093C50101C08081FF9110
:100B1000EF919F918F912F910F900FBE0F901F908B
:100B20001895CF93DF9300D000D01F92CDB7DEB7DA
:100B3000789484B5826084BD84B5816084BD85B5B8
:100B4000826085BD85B5816085BD80916E008160C4
:100B500080936E001092810080918100826080936A
:100B6000810080918100816080938100809180006C
:100B70008160809380008091B10084608093B10097
:100B80008091B00081608093B00080917A00846091
:100B900080937A0080917A00826080937A008091BD
:100BA0007A00816080937A0080917A0080688093D7
:100BB0007A001092C10085B5887F826085BD60E0B3
:100BC00082E00E940E0161E082E00E94DE0060E0AF
:100BD00083E00E940E0161E083E00E94DE0020EBD2
:100BE00031E03093010120930001809169008C7FF6
:100BF000816080936900E89A309303012093020199
:100C000080916900837F846080936900E99A61E044
:100C100084E00E940E0161E085E00E940E0161E027
:100C200087E00E94DE00E091BC01F091BD0182E00E
:100C30008083E091B801F091B9011082E091BA018E
:100C4000F091BB0181E080831092C401E091C0016A
:100C5000F091C10186E08083E091BE01F091BF0177
:100C6000808180618083E091BE01F091BF0180812D
:100C700088608083E091BE01F091BF01808180682F
:100C80008083E091BE01F091BF0180818F7D8083E0
:100C90001E0124E0220E311C8CEA91E00E94930296
:100CA00004970CF484C08CEA91E00E9471028B37A7
:100CB00009F07DC08E010F5F1F4F0E94A401609359
:100CC000B4017093B5018093B6019093B701E091A0
:100CD000AC01F091AD010680F781E02D8CEA91E046
:100CE000099597FD28C0F80181938F01E215F3055E
:100CF00021F769818A819B819D37E1F570E0762F2C
:100D00006627680F711D072E000C880B990B0E9437
:100D1000A90A20EF31E048E75AE30E94080B6093EC
:100D20009301709394018093950190939601F1E063
:100D3000F0938C013CC00E94A401C090B401D090FB
:100D4000B501E090B601F090B701DC01CB018C1940
:100D50009D09AE09BF09C090B001D090B101E090EB
:100D6000B201F090B3018C159D05AE05BF0508F4E6
:100D7000AECFBFCF9C37D9F470E0762F6627680FCF
:100D8000711D072E000C880B990B0E94A90A20EFF9
:100D900031E048E75AE30E94080B60939301709397
:100DA0009401809395019093960110928C0120E418
:100DB00020937C0080917A00806480937A008091F7
:100DC0007A0086FDFCCF809178002091790090E038
:100DD000922BE2E2E89F8001E99F100D112410930D
:100DE0008301009382010E94A40180909F01909052
:100DF000A001A090A101B090A201DC01CB01881953
:100E00009909AA09BB098897A105B10508F42EC163
:100E10000E94A4016B017C01C818D908EA08FB08EC
:100E2000C0929B01D0929C01E0929D01F0929E01A4
:100E30000E94A40160939F017093A0018093A1017F
:100E40009093A20180907E0190907F01A0908001FC
:100E5000B090810180917A0190917B01A0917C01F9
:100E6000B0917D01881A990AAA0ABB0A68EE73E05C
:100E700080E090E0A70196010E945909CA01B901DA
:100E8000A50194010E941309660F771F881F991FFF
:100E90000E94A90A2BED3FE049E450E40E94080BB0
:100EA00026E636E646E954E40E94EB099B01AC01D4
:100EB000DC01CB01B0588093970190939801A093E7
:100EC0009901B0939A0180917E0190917F01A09148
:100ED0008001B091810180937A0190937B01A0936E
:100EE0007C01B0937D018090930190909401A0903B
:100EF0009501B0909601C501B4010E947F092B01B4
:100F00003C01C701B6010E94A90A9B01AC01C301C3
:100F1000B2010E94080B2091880130918901409113
:100F20008A0150918B010E947F096B017C016093C3
:100F300088017093890180938A0190938B0120E04E
:100F400030E0A901C301B2010E94080B2B013C0152
:100F500020E030E0A901C701B6010E94080B9B0107
:100F6000AC01C301B2010E947F096B017C0120E04A
:100F700030E040E451E40E94930A87FD05C080E020
:100F800090E0A0E4B1E417C020E030E040E451EC90
:100F9000C701B6010E94A20A18164CF4C0928F0134
:100FA000D0929001E0929101F09292010CC080E009
:100FB00090E0A0E4B1EC80938F0190939001A09316
:100FC0009101B093920180918F0190919001A09135
:100FD0009101B0919201BC01CD01905829EF38EFF9
:100FE00048EF5DE30E94EB090E945D0A70938E0159
:100FF00060938D0120E030E0A901C501B4010E9499
:10100000A20A811114C080918C01882381F0109272
:101010008E0110928D011092880110928901109218
:101020008A0110928B0161E087E00E94DE008091CE
:101030008D0190918E0197FF0BC09195819591093B
:101040000E944A0160E084E00E94DE0061E00BC083
:10105000009721F00E944A0161E001C060E084E055
:101060000E94DE0060E085E00E94DE000E94A40194
:10107000C0908401D0908501E0908601F0908701B6
:10108000DC01CB018C199D09AE09BF09843691059D
:10109000A105B10508F497C00E94A40160938401E2
:1010A00070938501809386019093870120EF31E052
:1010B00048E75AE3609197017091980180919901F6
:1010C00090919A010E94EB090E945D0AFBE7F98367
:1010D0007A836B83C80160E570E00E9423096C830A
:1010E0002DE72D8345E050E0BE016F5F7F4F8CEA16
:1010F00091E00E94460282E291E00E943D036091ED
:10110000930170919401809195019091960142E034
:101110000E94C2038BE291E00E943D03609197011F
:10112000709198018091990190919A0142E00E94FA
:10113000C20384E391E00E943D0360919B017091A2
:101140009C0180919D0190919E010E9490038AE3F1
:1011500091E00E943D036091880170918901809126
:101160008A0190918B0142E00E94C20385E491E0E4
:101170000E943D03609182017091830180E090E0C4
:101180004AE00E944F0380E591E00E943D03609198
:101190008D0170918E01072E000C880B990B0E9417
:1011A00090038BE591E00E943D0360917E01709178
:1011B0007F0180918001909181010E94900389E6D6
:1011C00091E00E943D030E94330366CDECEAF1E01A
:1011D0001382128288EE93E0A0E0B0E084839583CE
:1011E000A683B78388E091E09183808385EC90E0CB
:1011F0009587848784EC90E09787868780EC90E0E1
:10120000918B808B81EC90E0938B828B82EC90E0D1
:10121000958B848B86EC90E0978B868B118E128E4B
:10122000138E148E0895DB018F939F930E94C60B3B
:10123000BF91AF91A29F800D911DA39F900DB29F72
:10124000900D11240895AA1BBB1B51E107C0AA1FD2
:10125000BB1FA617B70710F0A61BB70B881F991F57
:101260005A95A9F780959095BC01CD010895A1E20A
:101270001A2EAA1BBB1BFD010DC0AA1FBB1FEE1F10
:10128000FF1FA217B307E407F50720F0A21BB30B5B
:10129000E40BF50B661F771F881F991F1A9469F7D7
:1012A00060957095809590959B01AC01BD01CF0133
:1012B0000895052E97FB1EF400940E94700957FDB7
:1012C00007D00E94370907FC03D04EF40C94700934
:1012D00050954095309521953F4F4F4F5F4F089562
:1012E00090958095709561957F4F8F4F9F4F089592
:1012F000EE0FFF1F0590F491E02D09945058BB2785
:10130000AA270E9496090C948C0B0E947E0B38F041
:101310000E94850B20F039F49F3F19F426F40C94B9
:101320007B0B0EF4E095E7FB0C94750BE92F0E9404
:101330009D0B58F3BA17620773078407950720F0CF
:1013400079F4A6F50C94BF0B0EF4E0950B2EBA2F92
:10135000A02D0B01B90190010C01CA01A0011124BB
:10136000FF27591B99F0593F50F4503E68F11A1667
:10137000F040A22F232F342F4427585FF3CF4695F8
:1013800037952795A795F0405395C9F77EF41F161A
:10139000BA0B620B730B840BBAF09150A1F0FF0FE4
:1013A000BB1F661F771F881FC2F70EC0BA0F621FD0
:1013B000731F841F48F4879577956795B795F795C0
:1013C0009E3F08F0B0CF9395880F08F09927EE0F55
:1013D0009795879508950E94FF090C948C0B0E94A5
:1013E000850B58F00E947E0B40F029F45F3F29F0F6
:1013F0000C94750B51110C94C00B0C947B0B0E9438
:101400009D0B68F39923B1F3552391F3951B550B6D
:10141000BB27AA2762177307840738F09F5F5F4FC7
:10142000220F331F441FAA1FA9F335D00E2E3AF006
:10143000E0E832D091505040E695001CCAF72BD01E
:10144000FE2F29D0660F771F881FBB1F261737076F
:101450004807AB07B0E809F0BB0B802DBF01FF27A1
:1014600093585F4F3AF09E3F510578F00C94750BFE
:101470000C94C00B5F3FE4F3983ED4F386957795C8
:101480006795B795F7959F5FC9F7880F911D96955A
:10149000879597F90895E1E0660F771F881FBB1FB6
:1014A000621773078407BA0720F0621B730B840B63
:1014B000BA0BEE1F88F7E09508950E94640A6894BD
:1014C000B1110C94C00B08950E94A50B88F09F5792
:1014D00098F0B92F9927B751B0F0E1F0660F771F58
:1014E000881F991F1AF0BA95C9F714C0B13091F04E
:1014F0000E94BF0BB1E008950C94BF0B672F782FAB
:101500008827B85F39F0B93FCCF386957795679512
:10151000B395D9F73EF490958095709561957F4F7E
:101520008F4F9F4F08950E94E40A08F48FEF0895AB
:101530000E94E40A880B990B089581E090E0F894EA
:101540000C94E00B0E94E40A08F481E00895E8940A
:1015500009C097FB3EF490958095709561957F4FFB
:101560008F4F9F4F9923A9F0F92F96E9BB279395A9
:10157000F695879577956795B795F111F8CFFAF4B9
:10158000BB0F11F460FF1BC06F5F7F4F8F4F9F4FEA
:1015900016C0882311F096E911C0772321F09EE848
:1015A000872F762F05C0662371F096E8862F70E0AE
:1015B00060E02AF09A95660F771F881FDAF7880F88
:1015C0009695879597F90895990F0008550FAA0BDE
:1015D000E0E8FEEF16161706E807F907C0F0121646
:1015E0001306E407F50798F0621B730B840B950B49
:1015F00039F40A2661F0232B242B252B21F408959E
:101600000A2609F4A140A6958FEF811D811D08953A
:101610000E941B0B0C948C0B0E947E0B38F00E94D6
:10162000850B20F0952311F00C94750B0C947B0B1B
:1016300011240C94C00B0E949D0B70F3959FC1F375
:10164000950F50E0551F629FF001729FBB27F00D70
:10165000B11D639FAA27F00DB11DAA1F649F6627C5
:10166000B00DA11D661F829F2227B00DA11D621F14
:10167000739FB00DA11D621F839FA00D611D221FCE
:10168000749F3327A00D611D231F849F600D211DB2
:10169000822F762F6A2F11249F5750409AF0F1F035
:1016A00088234AF0EE0FFF1FBB1F661F771F881F9E
:1016B00091505040A9F79E3F510580F00C94750B56
:1016C0000C94C00B5F3FE4F3983ED4F38695779576
:1016D0006795B795F795E7959F5FC1F7FE2B880F44
:1016E000911D9695879597F9089597F99F6780E8DA
:1016F00070E060E008959FEF80EC089500240A9464
:101700001616170618060906089500240A941216DC
:101710001306140605060895092E0394000C11F40F
:10172000882352F0BB0F40F4BF2B11F460FF04C0BC
:101730006F5F7F4F8F4F9F4F089557FD9058440F15
:10174000551F59F05F3F71F04795880F97FB991F20
:1017500061F09F3F79F087950895121613061406DD
:10176000551FF2CF4695F1DF08C01616170618066A
:10177000991FF1CF86957105610508940895E89445
:10178000BB2766277727CB0197F908950E94D10BD5
:10179000A59F900DB49F900DA49F800D911D1124C5
:1017A0000895A29FB001B39FC001A39F700D811D3A
:1017B0001124911DB29F700D811D1124911D08955A
:0417C000F894FFCFCB
:1017C4004502450200000000CA024602930271026B
:1017D400850211036E616E00696E66006F766600A5
:1017E4002E00207461726765743A00206163747519
:1017F400616C3A00202064543A00202073756D5FB8
:101804006572723A00202043757272656E743A00F4
:10181400202050574D5F76616C3A002020456E635E
:0C1824006F646572706F733A000D0A006B
:00000001FF
